{
  "contractName": "PouchDelegate",
  "abi": [
    {
      "constant": true,
      "inputs": [],
      "name": "name",
      "outputs": [
        {
          "name": "",
          "type": "string"
        }
      ],
      "payable": false,
      "stateMutability": "view",
      "type": "function",
      "signature": "0x06fdde03"
    },
    {
      "constant": true,
      "inputs": [
        {
          "name": "",
          "type": "address"
        }
      ],
      "name": "rewards",
      "outputs": [
        {
          "name": "",
          "type": "uint256"
        }
      ],
      "payable": false,
      "stateMutability": "view",
      "type": "function",
      "signature": "0x0700037d"
    },
    {
      "constant": false,
      "inputs": [
        {
          "name": "_spender",
          "type": "address"
        },
        {
          "name": "_value",
          "type": "uint256"
        }
      ],
      "name": "approve",
      "outputs": [
        {
          "name": "success",
          "type": "bool"
        }
      ],
      "payable": false,
      "stateMutability": "nonpayable",
      "type": "function",
      "signature": "0x095ea7b3"
    },
    {
      "constant": true,
      "inputs": [],
      "name": "TRANSACT_TYPEHASH",
      "outputs": [
        {
          "name": "",
          "type": "bytes32"
        }
      ],
      "payable": false,
      "stateMutability": "view",
      "type": "function",
      "signature": "0x0df73116"
    },
    {
      "constant": true,
      "inputs": [],
      "name": "totalSupply",
      "outputs": [
        {
          "name": "",
          "type": "uint256"
        }
      ],
      "payable": false,
      "stateMutability": "view",
      "type": "function",
      "signature": "0x18160ddd"
    },
    {
      "constant": false,
      "inputs": [
        {
          "name": "_from",
          "type": "address"
        },
        {
          "name": "_to",
          "type": "address"
        },
        {
          "name": "_value",
          "type": "uint256"
        }
      ],
      "name": "transferFrom",
      "outputs": [
        {
          "name": "success",
          "type": "bool"
        }
      ],
      "payable": false,
      "stateMutability": "nonpayable",
      "type": "function",
      "signature": "0x23b872dd"
    },
    {
      "constant": true,
      "inputs": [
        {
          "name": "",
          "type": "address"
        }
      ],
      "name": "balances",
      "outputs": [
        {
          "name": "",
          "type": "uint256"
        }
      ],
      "payable": false,
      "stateMutability": "view",
      "type": "function",
      "signature": "0x27e235e3"
    },
    {
      "constant": true,
      "inputs": [],
      "name": "decimals",
      "outputs": [
        {
          "name": "",
          "type": "uint8"
        }
      ],
      "payable": false,
      "stateMutability": "view",
      "type": "function",
      "signature": "0x313ce567"
    },
    {
      "constant": true,
      "inputs": [],
      "name": "DOMAIN_SEPARATOR",
      "outputs": [
        {
          "name": "",
          "type": "bytes32"
        }
      ],
      "payable": false,
      "stateMutability": "view",
      "type": "function",
      "signature": "0x3644e515"
    },
    {
      "constant": true,
      "inputs": [],
      "name": "DEPOSIT_TYPEHASH",
      "outputs": [
        {
          "name": "",
          "type": "bytes32"
        }
      ],
      "payable": false,
      "stateMutability": "view",
      "type": "function",
      "signature": "0x48825e94"
    },
    {
      "constant": true,
      "inputs": [],
      "name": "supplyOf",
      "outputs": [
        {
          "name": "balance",
          "type": "uint256"
        }
      ],
      "payable": false,
      "stateMutability": "view",
      "type": "function",
      "signature": "0x523a50d0"
    },
    {
      "constant": true,
      "inputs": [],
      "name": "version",
      "outputs": [
        {
          "name": "",
          "type": "string"
        }
      ],
      "payable": false,
      "stateMutability": "view",
      "type": "function",
      "signature": "0x54fd4d50"
    },
    {
      "constant": true,
      "inputs": [
        {
          "name": "",
          "type": "address"
        },
        {
          "name": "",
          "type": "address"
        }
      ],
      "name": "allowed",
      "outputs": [
        {
          "name": "",
          "type": "uint256"
        }
      ],
      "payable": false,
      "stateMutability": "view",
      "type": "function",
      "signature": "0x5c658165"
    },
    {
      "constant": true,
      "inputs": [
        {
          "name": "_owner",
          "type": "address"
        }
      ],
      "name": "balanceOf",
      "outputs": [
        {
          "name": "balance",
          "type": "uint256"
        }
      ],
      "payable": false,
      "stateMutability": "view",
      "type": "function",
      "signature": "0x70a08231"
    },
    {
      "constant": true,
      "inputs": [],
      "name": "WITHDRAW_TYPEHASH",
      "outputs": [
        {
          "name": "",
          "type": "bytes32"
        }
      ],
      "payable": false,
      "stateMutability": "view",
      "type": "function",
      "signature": "0x76c5d758"
    },
    {
      "constant": true,
      "inputs": [
        {
          "name": "",
          "type": "address"
        }
      ],
      "name": "nonces",
      "outputs": [
        {
          "name": "",
          "type": "uint256"
        }
      ],
      "payable": false,
      "stateMutability": "view",
      "type": "function",
      "signature": "0x7ecebe00"
    },
    {
      "constant": true,
      "inputs": [],
      "name": "symbol",
      "outputs": [
        {
          "name": "",
          "type": "string"
        }
      ],
      "payable": false,
      "stateMutability": "view",
      "type": "function",
      "signature": "0x95d89b41"
    },
    {
      "constant": false,
      "inputs": [
        {
          "name": "_to",
          "type": "address"
        },
        {
          "name": "_value",
          "type": "uint256"
        }
      ],
      "name": "transfer",
      "outputs": [
        {
          "name": "success",
          "type": "bool"
        }
      ],
      "payable": false,
      "stateMutability": "nonpayable",
      "type": "function",
      "signature": "0xa9059cbb"
    },
    {
      "constant": true,
      "inputs": [
        {
          "name": "_owner",
          "type": "address"
        },
        {
          "name": "_spender",
          "type": "address"
        }
      ],
      "name": "allowance",
      "outputs": [
        {
          "name": "remaining",
          "type": "uint256"
        }
      ],
      "payable": false,
      "stateMutability": "view",
      "type": "function",
      "signature": "0xdd62ed3e"
    },
    {
      "constant": true,
      "inputs": [],
      "name": "ImplementationAddress",
      "outputs": [
        {
          "name": "",
          "type": "address"
        }
      ],
      "payable": false,
      "stateMutability": "view",
      "type": "function",
      "signature": "0xe8a667de"
    },
    {
      "constant": true,
      "inputs": [],
      "name": "admin",
      "outputs": [
        {
          "name": "",
          "type": "address"
        }
      ],
      "payable": false,
      "stateMutability": "view",
      "type": "function",
      "signature": "0xf851a440"
    },
    {
      "inputs": [
        {
          "name": "_chainId",
          "type": "uint256"
        }
      ],
      "payable": false,
      "stateMutability": "nonpayable",
      "type": "constructor",
      "signature": "constructor"
    },
    {
      "payable": false,
      "stateMutability": "nonpayable",
      "type": "fallback"
    },
    {
      "anonymous": false,
      "inputs": [
        {
          "indexed": true,
          "name": "_from",
          "type": "address"
        },
        {
          "indexed": true,
          "name": "_to",
          "type": "address"
        },
        {
          "indexed": false,
          "name": "_value",
          "type": "uint256"
        }
      ],
      "name": "Transfer",
      "type": "event",
      "signature": "0xddf252ad1be2c89b69c2b068fc378daa952ba7f163c4a11628f55a4df523b3ef"
    },
    {
      "anonymous": false,
      "inputs": [
        {
          "indexed": true,
          "name": "_owner",
          "type": "address"
        },
        {
          "indexed": true,
          "name": "_spender",
          "type": "address"
        },
        {
          "indexed": false,
          "name": "_value",
          "type": "uint256"
        }
      ],
      "name": "Approval",
      "type": "event",
      "signature": "0x8c5be1e5ebec7d5bd14f71427d1e84f3dd0314c0f7b2291e5b200ac8c7c3b925"
    },
    {
      "anonymous": false,
      "inputs": [
        {
          "indexed": true,
          "name": "_from",
          "type": "address"
        },
        {
          "indexed": true,
          "name": "_to",
          "type": "address"
        },
        {
          "indexed": false,
          "name": "_value",
          "type": "uint256"
        }
      ],
      "name": "Reward",
      "type": "event",
      "signature": "0x6b053894d8fdbdcc936dd753e21291f0c48e68ef12306eb39a63a374147ba4bd"
    },
    {
      "constant": false,
      "inputs": [
        {
          "name": "_newImplemenationAddress",
          "type": "address"
        }
      ],
      "name": "updateLogic",
      "outputs": [],
      "payable": false,
      "stateMutability": "nonpayable",
      "type": "function",
      "signature": "0x795e617e"
    },
    {
      "constant": false,
      "inputs": [
        {
          "name": "holder",
          "type": "address"
        },
        {
          "name": "value",
          "type": "uint256"
        },
        {
          "name": "nonce",
          "type": "uint256"
        },
        {
          "name": "r",
          "type": "bytes32"
        },
        {
          "name": "s",
          "type": "bytes32"
        },
        {
          "name": "v",
          "type": "uint8"
        }
      ],
      "name": "deposit",
      "outputs": [
        {
          "name": "",
          "type": "bool"
        }
      ],
      "payable": false,
      "stateMutability": "nonpayable",
      "type": "function",
      "signature": "0xcfefd241"
    },
    {
      "constant": false,
      "inputs": [
        {
          "name": "holder",
          "type": "address"
        },
        {
          "name": "value",
          "type": "uint256"
        },
        {
          "name": "nonce",
          "type": "uint256"
        },
        {
          "name": "r",
          "type": "bytes32"
        },
        {
          "name": "s",
          "type": "bytes32"
        },
        {
          "name": "v",
          "type": "uint8"
        }
      ],
      "name": "withdraw",
      "outputs": [
        {
          "name": "",
          "type": "bool"
        }
      ],
      "payable": false,
      "stateMutability": "nonpayable",
      "type": "function",
      "signature": "0xcbb40dae"
    },
    {
      "constant": false,
      "inputs": [
        {
          "name": "holder",
          "type": "address"
        },
        {
          "name": "to",
          "type": "address"
        },
        {
          "name": "value",
          "type": "uint256"
        },
        {
          "name": "nonce",
          "type": "uint256"
        },
        {
          "name": "r",
          "type": "bytes32"
        },
        {
          "name": "s",
          "type": "bytes32"
        },
        {
          "name": "v",
          "type": "uint8"
        }
      ],
      "name": "transact",
      "outputs": [
        {
          "name": "",
          "type": "bool"
        }
      ],
      "payable": false,
      "stateMutability": "nonpayable",
      "type": "function",
      "signature": "0x12c6abb8"
    },
    {
      "constant": true,
      "inputs": [
        {
          "name": "holder",
          "type": "address"
        }
      ],
      "name": "userRewards",
      "outputs": [
        {
          "name": "",
          "type": "uint256"
        }
      ],
      "payable": false,
      "stateMutability": "view",
      "type": "function",
      "signature": "0x0660f1e8"
    }
  ],
  "bytecode": "0x608060405273e7bc397dbd069fc7d0109c0636d06888bb50668c600460006101000a81548173ffffffffffffffffffffffffffffffffffffffff021916908373ffffffffffffffffffffffffffffffffffffffff160217905550600460009054906101000a900473ffffffffffffffffffffffffffffffffffffffff16600560006101000a81548173ffffffffffffffffffffffffffffffffffffffff021916908373ffffffffffffffffffffffffffffffffffffffff160217905550734f96fe3b7a6cf9725f59d353f723c1bdb64ca6aa600660006101000a81548173ffffffffffffffffffffffffffffffffffffffff021916908373ffffffffffffffffffffffffffffffffffffffff160217905550600660009054906101000a900473ffffffffffffffffffffffffffffffffffffffff16600760006101000a81548173ffffffffffffffffffffffffffffffffffffffff021916908373ffffffffffffffffffffffffffffffffffffffff1602179055503480156200018157600080fd5b50604051602080620023578339810180604052620001a3919081019062000331565b60405180807f454950373132446f6d61696e28737472696e67206e616d652c737472696e672081526020017f76657273696f6e2c75696e7432353620636861696e49642c616464726573732081526020017f766572696679696e67436f6e7472616374290000000000000000000000000000815250605201905060405180910390206040805190810160405280600b81526020017f506f75636820546f6b656e000000000000000000000000000000000000000000815250805190602001206040805190810160405280600181526020017f3100000000000000000000000000000000000000000000000000000000000000815250805190602001208330604051602001620002b795949392919062000390565b6040516020818303038152906040528051906020012060098190555033600360006101000a81548173ffffffffffffffffffffffffffffffffffffffff021916908373ffffffffffffffffffffffffffffffffffffffff160217905550506200043f565b600062000329825162000435565b905092915050565b6000602082840312156200034457600080fd5b600062000354848285016200031b565b91505092915050565b6200036881620003ed565b82525050565b620003798162000401565b82525050565b6200038a816200042b565b82525050565b600060a082019050620003a760008301886200036e565b620003b660208301876200036e565b620003c560408301866200036e565b620003d460608301856200037f565b620003e360808301846200035d565b9695505050505050565b6000620003fa826200040b565b9050919050565b6000819050919050565b600073ffffffffffffffffffffffffffffffffffffffff82169050919050565b6000819050919050565b6000819050919050565b611f08806200044f6000396000f3fe608060405260043610610154576000357c0100000000000000000000000000000000000000000000000000000000900463ffffffff1680630660f1e81461020757806306fdde03146102445780630700037d1461026f578063095ea7b3146102ac5780630df73116146102e957806312c6abb81461031457806318160ddd1461035157806323b872dd1461037c57806327e235e3146103b9578063313ce567146103f65780633644e5151461042157806348825e941461044c578063523a50d01461047757806354fd4d50146104a25780635c658165146104cd57806370a082311461050a57806376c5d75814610547578063795e617e146105725780637ecebe001461059b57806395d89b41146105d8578063a9059cbb14610603578063cbb40dae14610640578063cfefd2411461067d578063dd62ed3e146106ba578063e8a667de146106f7578063f851a44014610722575b34801561016057600080fd5b506000600860009054906101000a900473ffffffffffffffffffffffffffffffffffffffff1673ffffffffffffffffffffffffffffffffffffffff16600036604051808383808284378083019250505092505050600060405180830381855af49150503d80600081146101ef576040519150601f19603f3d011682016040523d82523d6000602084013e6101f4565b606091505b5050905080151561020457600080fd5b50005b34801561021357600080fd5b5061022e600480360361022991908101906117f4565b61074d565b60405161023b9190611dab565b60405180910390f35b34801561025057600080fd5b50610259610796565b6040516102669190611ce9565b60405180910390f35b34801561027b57600080fd5b50610296600480360361029191908101906117f4565b6107cf565b6040516102a39190611dab565b60405180910390f35b3480156102b857600080fd5b506102d360048036036102ce9190810190611946565b6107e7565b6040516102e09190611cb3565b60405180910390f35b3480156102f557600080fd5b506102fe6108d9565b60405161030b9190611cce565b60405180910390f35b34801561032057600080fd5b5061033b600480360361033691908101906118a8565b610938565b6040516103489190611cb3565b60405180910390f35b34801561035d57600080fd5b50610366610b50565b6040516103739190611dab565b60405180910390f35b34801561038857600080fd5b506103a3600480360361039e9190810190611859565b610b56565b6040516103b09190611cb3565b60405180910390f35b3480156103c557600080fd5b506103e060048036036103db91908101906117f4565b610df0565b6040516103ed9190611dab565b60405180910390f35b34801561040257600080fd5b5061040b610e08565b6040516104189190611dc6565b60405180910390f35b34801561042d57600080fd5b50610436610e0d565b6040516104439190611cce565b60405180910390f35b34801561045857600080fd5b50610461610e13565b60405161046e9190611cce565b60405180910390f35b34801561048357600080fd5b5061048c610e72565b6040516104999190611dab565b60405180910390f35b3480156104ae57600080fd5b506104b7610e7b565b6040516104c49190611ce9565b60405180910390f35b3480156104d957600080fd5b506104f460048036036104ef919081019061181d565b610eb4565b6040516105019190611dab565b60405180910390f35b34801561051657600080fd5b50610531600480360361052c91908101906117f4565b610ed9565b60405161053e9190611dab565b60405180910390f35b34801561055357600080fd5b5061055c610f22565b6040516105699190611cce565b60405180910390f35b34801561057e57600080fd5b50610599600480360361059491908101906117f4565b610f81565b005b3480156105a757600080fd5b506105c260048036036105bd91908101906117f4565b6110e9565b6040516105cf9190611dab565b60405180910390f35b3480156105e457600080fd5b506105ed611101565b6040516105fa9190611ce9565b60405180910390f35b34801561060f57600080fd5b5061062a60048036036106259190810190611946565b61113a565b6040516106379190611cb3565b60405180910390f35b34801561064c57600080fd5b5061066760048036036106629190810190611982565b611293565b6040516106749190611cb3565b60405180910390f35b34801561068957600080fd5b506106a4600480360361069f9190810190611982565b6114a8565b6040516106b19190611cb3565b60405180910390f35b3480156106c657600080fd5b506106e160048036036106dc919081019061181d565b6116bd565b6040516106ee9190611dab565b60405180910390f35b34801561070357600080fd5b5061070c611744565b6040516107199190611bc8565b60405180910390f35b34801561072e57600080fd5b5061073761176a565b6040516107449190611bc8565b60405180910390f35b6000600b60008373ffffffffffffffffffffffffffffffffffffffff1673ffffffffffffffffffffffffffffffffffffffff168152602001908152602001600020549050919050565b6040805190810160405280600b81526020017f506f75636820546f6b656e00000000000000000000000000000000000000000081525081565b600b6020528060005260406000206000915090505481565b600081600260003373ffffffffffffffffffffffffffffffffffffffff1673ffffffffffffffffffffffffffffffffffffffff16815260200190815260200160002060008573ffffffffffffffffffffffffffffffffffffffff1673ffffffffffffffffffffffffffffffffffffffff168152602001908152602001600020819055508273ffffffffffffffffffffffffffffffffffffffff163373ffffffffffffffffffffffffffffffffffffffff167f8c5be1e5ebec7d5bd14f71427d1e84f3dd0314c0f7b2291e5b200ac8c7c3b925846040516108c79190611dab565b60405180910390a36001905092915050565b60405180807f5472616e73616374286164647265737320686f6c6465722c616464726573732081526020017f746f2c75696e743235362076616c75652c75696e74323536206e6f6e63652900815250603f019050604051809103902081565b6000806060600860009054906101000a900473ffffffffffffffffffffffffffffffffffffffff1673ffffffffffffffffffffffffffffffffffffffff1660405180807f7472616e7361637428616464726573732c616464726573732c75696e7432353681526020017f2c75696e743235362c627974657333322c627974657333322c75696e74382900815250603f01905060405180910390208b8b8b8b8b8b8b6040516024016109ef9796959493929190611be3565b604051602081830303815290604052907bffffffffffffffffffffffffffffffffffffffffffffffffffffffff19166020820180517bffffffffffffffffffffffffffffffffffffffffffffffffffffffff83818316178352505050506040518082805190602001908083835b602083101515610a815780518252602082019150602081019050602083039250610a5c565b6001836020036101000a038019825116818451168082178552505050505050905001915050600060405180830381855af49150503d8060008114610ae1576040519150601f19603f3d011682016040523d82523d6000602084013e610ae6565b606091505b5091509150811515610b2d576040517f08c379a0000000000000000000000000000000000000000000000000000000008152600401610b2490611d8b565b60405180910390fd5b80806020019051610b419190810190611a0b565b92505050979650505050505050565b60005481565b600080600260008673ffffffffffffffffffffffffffffffffffffffff1673ffffffffffffffffffffffffffffffffffffffff16815260200190815260200160002060003373ffffffffffffffffffffffffffffffffffffffff1673ffffffffffffffffffffffffffffffffffffffff16815260200190815260200160002054905082600160008773ffffffffffffffffffffffffffffffffffffffff1673ffffffffffffffffffffffffffffffffffffffff1681526020019081526020016000205410158015610c275750828110155b1515610c3257600080fd5b82600160008673ffffffffffffffffffffffffffffffffffffffff1673ffffffffffffffffffffffffffffffffffffffff1681526020019081526020016000206000828254019250508190555082600160008773ffffffffffffffffffffffffffffffffffffffff1673ffffffffffffffffffffffffffffffffffffffff168152602001908152602001600020600082825403925050819055507fffffffffffffffffffffffffffffffffffffffffffffffffffffffffffffffff811015610d7f5782600260008773ffffffffffffffffffffffffffffffffffffffff1673ffffffffffffffffffffffffffffffffffffffff16815260200190815260200160002060003373ffffffffffffffffffffffffffffffffffffffff1673ffffffffffffffffffffffffffffffffffffffff168152602001908152602001600020600082825403925050819055505b8373ffffffffffffffffffffffffffffffffffffffff168573ffffffffffffffffffffffffffffffffffffffff167fddf252ad1be2c89b69c2b068fc378daa952ba7f163c4a11628f55a4df523b3ef85604051610ddc9190611dab565b60405180910390a360019150509392505050565b60016020528060005260406000206000915090505481565b601281565b60095481565b60405180807f4465706f736974286164647265737320686f6c6465722c75696e74323536207681526020017f616c75652c75696e74323536206e6f6e636529000000000000000000000000008152506033019050604051809103902081565b60008054905090565b6040805190810160405280600181526020017f310000000000000000000000000000000000000000000000000000000000000081525081565b6002602052816000526040600020602052806000526040600020600091509150505481565b6000600160008373ffffffffffffffffffffffffffffffffffffffff1673ffffffffffffffffffffffffffffffffffffffff168152602001908152602001600020549050919050565b60405180807f5769746864726177286164647265737320686f6c6465722c75696e743235362081526020017f76616c75652c75696e74323536206e6f6e6365290000000000000000000000008152506034019050604051809103902081565b600360009054906101000a900473ffffffffffffffffffffffffffffffffffffffff1673ffffffffffffffffffffffffffffffffffffffff163373ffffffffffffffffffffffffffffffffffffffff16141515611013576040517f08c379a000000000000000000000000000000000000000000000000000000000815260040161100a90611d0b565b60405180910390fd5b600360009054906101000a900473ffffffffffffffffffffffffffffffffffffffff1673ffffffffffffffffffffffffffffffffffffffff163373ffffffffffffffffffffffffffffffffffffffff161415156110a5576040517f08c379a000000000000000000000000000000000000000000000000000000000815260040161109c90611d2b565b60405180910390fd5b80600860006101000a81548173ffffffffffffffffffffffffffffffffffffffff021916908373ffffffffffffffffffffffffffffffffffffffff16021790555050565b600a6020528060005260406000206000915090505481565b6040805190810160405280600381526020017f504348000000000000000000000000000000000000000000000000000000000081525081565b600081600160003373ffffffffffffffffffffffffffffffffffffffff1673ffffffffffffffffffffffffffffffffffffffff168152602001908152602001600020541015151561118a57600080fd5b81600160003373ffffffffffffffffffffffffffffffffffffffff1673ffffffffffffffffffffffffffffffffffffffff1681526020019081526020016000206000828254039250508190555081600160008573ffffffffffffffffffffffffffffffffffffffff1673ffffffffffffffffffffffffffffffffffffffff168152602001908152602001600020600082825401925050819055508273ffffffffffffffffffffffffffffffffffffffff163373ffffffffffffffffffffffffffffffffffffffff167fddf252ad1be2c89b69c2b068fc378daa952ba7f163c4a11628f55a4df523b3ef846040516112819190611dab565b60405180910390a36001905092915050565b6000806060600860009054906101000a900473ffffffffffffffffffffffffffffffffffffffff1673ffffffffffffffffffffffffffffffffffffffff1660405180807f776974686472617728616464726573732c75696e743235362c75696e7432353681526020017f2c627974657333322c627974657333322c75696e743829000000000000000000815250603701905060405180910390208a8a8a8a8a8a60405160240161134896959493929190611c52565b604051602081830303815290604052907bffffffffffffffffffffffffffffffffffffffffffffffffffffffff19166020820180517bffffffffffffffffffffffffffffffffffffffffffffffffffffffff83818316178352505050506040518082805190602001908083835b6020831015156113da57805182526020820191506020810190506020830392506113b5565b6001836020036101000a038019825116818451168082178552505050505050905001915050600060405180830381855af49150503d806000811461143a576040519150601f19603f3d011682016040523d82523d6000602084013e61143f565b606091505b5091509150811515611486576040517f08c379a000000000000000000000000000000000000000000000000000000000815260040161147d90611d6b565b60405180910390fd5b8080602001905161149a9190810190611a0b565b925050509695505050505050565b6000806060600860009054906101000a900473ffffffffffffffffffffffffffffffffffffffff1673ffffffffffffffffffffffffffffffffffffffff1660405180807f6465706f73697428616464726573732c75696e743235362c75696e743235362c81526020017f627974657333322c627974657333322c75696e74382900000000000000000000815250603601905060405180910390208a8a8a8a8a8a60405160240161155d96959493929190611c52565b604051602081830303815290604052907bffffffffffffffffffffffffffffffffffffffffffffffffffffffff19166020820180517bffffffffffffffffffffffffffffffffffffffffffffffffffffffff83818316178352505050506040518082805190602001908083835b6020831015156115ef57805182526020820191506020810190506020830392506115ca565b6001836020036101000a038019825116818451168082178552505050505050905001915050600060405180830381855af49150503d806000811461164f576040519150601f19603f3d011682016040523d82523d6000602084013e611654565b606091505b509150915081151561169b576040517f08c379a000000000000000000000000000000000000000000000000000000000815260040161169290611d4b565b60405180910390fd5b808060200190516116af9190810190611a0b565b925050509695505050505050565b6000600260008473ffffffffffffffffffffffffffffffffffffffff1673ffffffffffffffffffffffffffffffffffffffff16815260200190815260200160002060008373ffffffffffffffffffffffffffffffffffffffff1673ffffffffffffffffffffffffffffffffffffffff16815260200190815260200160002054905092915050565b600860009054906101000a900473ffffffffffffffffffffffffffffffffffffffff1681565b600360009054906101000a900473ffffffffffffffffffffffffffffffffffffffff1681565b600061179c8235611e4b565b905092915050565b60006117b08251611e5d565b905092915050565b60006117c48235611e69565b905092915050565b60006117d88235611e73565b905092915050565b60006117ec8235611e7d565b905092915050565b60006020828403121561180657600080fd5b600061181484828501611790565b91505092915050565b6000806040838503121561183057600080fd5b600061183e85828601611790565b925050602061184f85828601611790565b9150509250929050565b60008060006060848603121561186e57600080fd5b600061187c86828701611790565b935050602061188d86828701611790565b925050604061189e868287016117cc565b9150509250925092565b600080600080600080600060e0888a0312156118c357600080fd5b60006118d18a828b01611790565b97505060206118e28a828b01611790565b96505060406118f38a828b016117cc565b95505060606119048a828b016117cc565b94505060806119158a828b016117b8565b93505060a06119268a828b016117b8565b92505060c06119378a828b016117e0565b91505092959891949750929550565b6000806040838503121561195957600080fd5b600061196785828601611790565b9250506020611978858286016117cc565b9150509250929050565b60008060008060008060c0878903121561199b57600080fd5b60006119a989828a01611790565b96505060206119ba89828a016117cc565b95505060406119cb89828a016117cc565b94505060606119dc89828a016117b8565b93505060806119ed89828a016117b8565b92505060a06119fe89828a016117e0565b9150509295509295509295565b600060208284031215611a1d57600080fd5b6000611a2b848285016117a4565b91505092915050565b611a3d81611dec565b82525050565b611a4c81611dfe565b82525050565b611a5b81611e0a565b82525050565b6000611a6c82611de1565b808452611a80816020860160208601611e8a565b611a8981611ebd565b602085010191505092915050565b6000601f82527f526573747269637465642041636365737320746f2041646d696e204f6e6c79006020830152604082019050919050565b6000600a82527f41646d696e204f6e6c79000000000000000000000000000000000000000000006020830152604082019050919050565b6000601782527f44656c65676174652f6465706f736974206661696c65640000000000000000006020830152604082019050919050565b6000601882527f44656c65676174652f7769746864726177206661696c656400000000000000006020830152604082019050919050565b6000601882527f44656c65676174652f7472616e73616374206661696c656400000000000000006020830152604082019050919050565b611bb381611e34565b82525050565b611bc281611e3e565b82525050565b6000602082019050611bdd6000830184611a34565b92915050565b600060e082019050611bf8600083018a611a34565b611c056020830189611a34565b611c126040830188611baa565b611c1f6060830187611baa565b611c2c6080830186611a52565b611c3960a0830185611a52565b611c4660c0830184611bb9565b98975050505050505050565b600060c082019050611c676000830189611a34565b611c746020830188611baa565b611c816040830187611baa565b611c8e6060830186611a52565b611c9b6080830185611a52565b611ca860a0830184611bb9565b979650505050505050565b6000602082019050611cc86000830184611a43565b92915050565b6000602082019050611ce36000830184611a52565b92915050565b60006020820190508181036000830152611d038184611a61565b905092915050565b60006020820190508181036000830152611d2481611a97565b9050919050565b60006020820190508181036000830152611d4481611ace565b9050919050565b60006020820190508181036000830152611d6481611b05565b9050919050565b60006020820190508181036000830152611d8481611b3c565b9050919050565b60006020820190508181036000830152611da481611b73565b9050919050565b6000602082019050611dc06000830184611baa565b92915050565b6000602082019050611ddb6000830184611bb9565b92915050565b600081519050919050565b6000611df782611e14565b9050919050565b60008115159050919050565b6000819050919050565b600073ffffffffffffffffffffffffffffffffffffffff82169050919050565b6000819050919050565b600060ff82169050919050565b6000611e5682611e14565b9050919050565b60008115159050919050565b6000819050919050565b6000819050919050565b600060ff82169050919050565b60005b83811015611ea8578082015181840152602081019050611e8d565b83811115611eb7576000848401525b50505050565b6000601f19601f830116905091905056fea265627a7a72305820d52c85ba87b2e0cfd06655731361d12922def3512184545c7d9b6fa96442df816c6578706572696d656e74616cf50037",
  "source": "pragma solidity >=0.5.0;\npragma experimental ABIEncoderV2;\n\nimport \"./PouchToken.sol\";\n\n//  ** Inheritance of Pouch Token to Make Delegate Calls to implementation Contract. **\n\ncontract PouchDelegate is PouchToken {\n    constructor(uint256 _chainId) public {\n        DOMAIN_SEPARATOR = keccak256(\n            abi.encode(\n                keccak256(\n                    \"EIP712Domain(string name,string version,uint256 chainId,address verifyingContract)\"\n                ),\n                keccak256(bytes(name)),\n                keccak256(bytes(version)),\n                _chainId,\n                address(this)\n            )\n        );\n\n        admin = msg.sender;\n    }\n\n    // ** Internal Functions **\n\n    modifier adminOnly() {\n        require(msg.sender == admin, \"Restricted Access to Admin Only\");\n        _;\n    }\n\n    // ** Update Implementation Address **\n    function updateLogic(address _newImplemenationAddress) external adminOnly {\n        require(msg.sender == admin, \"Admin Only\");\n        ImplementationAddress = _newImplemenationAddress;\n    }\n\n    // ** Delegate calls **\n\n    // Deposit delegate call\n    function deposit(\n        address holder,\n        uint256 value,\n        uint256 nonce,\n        bytes32 r,\n        bytes32 s,\n        uint8 v\n    ) public returns (bool) {\n        (bool status, bytes memory returnedData) = ImplementationAddress\n            .delegatecall(\n            abi.encodeWithSelector(\n                bytes4(\n                    keccak256(\n                        \"deposit(address,uint256,uint256,bytes32,bytes32,uint8)\"\n                    )\n                ),\n                holder,\n                value,\n                nonce,\n                r,\n                s,\n                v\n            )\n        );\n        require(status, \"Delegate/deposit failed\");\n        return abi.decode(returnedData, (bool));\n    }\n\n    // Withdraw delegate call\n    function withdraw(\n        address holder,\n        uint256 value,\n        uint256 nonce,\n        bytes32 r,\n        bytes32 s,\n        uint8 v\n    ) public returns (bool) {\n        (bool status, bytes memory returnedData) = ImplementationAddress\n            .delegatecall(\n            abi.encodeWithSelector(\n                bytes4(\n                    keccak256(\n                        \"withdraw(address,uint256,uint256,bytes32,bytes32,uint8)\"\n                    )\n                ),\n                holder,\n                value,\n                nonce,\n                r,\n                s,\n                v\n            )\n        );\n        require(status, \"Delegate/withdraw failed\");\n        return abi.decode(returnedData, (bool));\n    }\n\n    // Transact delegate call\n    function transact(\n        address holder,\n        address to,\n        uint256 value,\n        uint256 nonce,\n        bytes32 r,\n        bytes32 s,\n        uint8 v\n    ) public returns (bool) {\n        (bool status, bytes memory returnedData) = ImplementationAddress\n            .delegatecall(\n            abi.encodeWithSelector(\n                bytes4(\n                    keccak256(\n                        \"transact(address,address,uint256,uint256,bytes32,bytes32,uint8)\"\n                    )\n                ),\n                holder,\n                to,\n                value,\n                nonce,\n                r,\n                s,\n                v\n            )\n        );\n        require(status, \"Delegate/transact failed\");\n        return abi.decode(returnedData, (bool));\n    }\n\n    function userRewards(address holder) external view returns (uint256) {\n        return rewards[holder];\n    }\n    /**\n     * @notice Delegates execution to an implementation contract\n     * @dev It returns to the external caller whatever the implementation returns or forwards reverts\n     */\n    function() external {\n        // delegate all other functions to current implementation\n        (bool status, ) = ImplementationAddress.delegatecall(msg.data);\n        require(status);\n\n    }\n\n}\n",
  "sourcePath": "/home/roheat/blockchain/ethlondon/contracts/PouchDelegate.sol",
  "compiler": {
    "name": "solc",
    "version": "0.5.0+commit.1d4f565a.Emscripten.clang"
  },
  "schemaVersion": "3.0.1",
  "updatedAt": "2020-02-29T10:52:13.129Z",
  "devdoc": {
    "methods": {}
  },
  "userdoc": {
    "methods": {}
  }
}